:03000000020003F8
:0C000300787FE4F6D8FD75810902004A00
:0400E600020800000C
:1000C000E4FDFCC3ED9FEE6480F8EC64809850156D
:1000D000E4FBFA0BBB00010AEB640A4A70F50DBDA4
:0500E00000010C80DEB0
:0100E50022F8
:10008F00E4F508F509B2A0B2A1B2A2B2A3B2A4B22C
:10009F00A5B2A6B2A77F887E131200C00509E50995
:1000AF0070020508C39408E5086480948040D680E8
:0100BF00CF71
:10000F0002008FE493A3F8E493A34003F68001F278
:10001F0008DFF48029E493A3F85407240CC8C333F2
:10002F00C4540F4420C8834004F456800146F6DFC1
:10003F00E4800B01020408102040809000E6E47E6B
:10004F00019360BCA3FF543F30E509541FFEE493B6
:10005F00A360010ECF54C025E060A840B8E493A37D
:10006F00FAE493A3F8E493A3C8C582C8CAC583CAA8
:10007F00F0A3C8C582C8CAC583CADFE9DEE780BE60
:0100EA000015
:00000001FF
